:020000040000FA
:100000000A128A11E72FFF1B0D2883137F1883170D
:100010000008840A0319FF0A080000308A00040857
:10002000840A82070034013400340A340034643412
:100030000034E834033410342734433465347234E4
:10004000723461346434753472346134203445342C
:100050006C3465346334743472346F346E346934A0
:1000600063346134003443346C3461347634653441
:10007000203449346E3463346F34723472346534EE
:10008000633474346134003449344E344734523468
:100090004534533441345234203443344C344134A5
:1000A000563445343A340034433461346A3461346C
:1000B000203442346C346F347134753465346134B7
:1000C00064346134003443346C34613476346534E0
:1000D000203443346F34723472346534633474348E
:1000E00061340034433465347234723461346434BE
:1000F00075347234613400344134623469346534A7
:1001000072347434613400342A342A342A342A3460
:1001100000345F345F345F345F3400342534693435
:020120000034A9
:10012400D2340434831203130714080001300A1272
:100134008A159F270A128A110C300A128A159F27E2
:100144000A128A1108000A128A156C270A128A11E7
:100154000230FB007B08F40001300A128A113F22AE
:100164000A128A113230F5008030F6000A128A1120
:10017400D1200A128A110830FB007B08F4000230F7
:100184000A128A113F220A128A117730F500803050
:10019400F6000A128A11D1200A128A110800F70106
:1001A400F801EC2877087507840078080318780AA2
:1001B4007607FF000A128A1103200A128A110A1212
:1001C4008A1101210A128A110130F7070318F80A6B
:1001D4000030F80777087507840078080318780A50
:1001E400760783120313FF000A128A1103200A12EE
:1001F4008A11003A031DFF280029D4280800F400BE
:1002040074080F39F1007108F2007408F039F10034
:100214007108F3008312031308157308F100043006
:100224000310F10CFF3E031D122971080A128A15EE
:10023400B9270A128A118312031388150D30F100AD
:10024400F10B222983120313881172080A128A15EA
:10025400B9270A128A118312031388150D30F1008D
:10026400F10B3229831203138811080078087904EA
:1002740003193D293E296D29FD01FD0A4C29013050
:100284000310F80DF90DFF3E031D42290130FC0057
:100294007C08FD07F91F4F295029412979087B0261
:1002A400031D562978087A02031C59295A29602902
:1002B4007808FA027908031CFB03FB0201300310DF
:1002C400F90CF80CFF3E031D61290130FD02031DEA
:1002D4006C296D2950297B08F9007A08F800080078
:1002E40083120313A0000830FB007B08F4000230E3
:1002F4000A128A113F220A128A1183120313200858
:10030400FB00FC017B08F5007C08F6000A128A1148
:10031400D1200A128A110630FD001330FC00AD30E2
:10032400FB00FB0B9329FC0B9329FD0B93299A29C2
:100334000830FB007B08F40002300A128A113F22C5
:100344000A128A117230F5008030F6000A128A11FE
:10035400D1200A128A110800F501F601700871040F
:100364000319B529B629ED29F701F70AC429013083
:100374000310F00DF10DFF3E031DBA290130F40006
:100384007408F707F11FC729C829B92901300310D8
:10039400F50DF60DFF3E031DC92971087302031DF7
:1003A400D52970087202031CD829D929E0297008BC
:1003B400F2027108031CF303F302751401300310F5
:1003C400F10CF00CFF3E031DE1290130F702031D7F
:1003D400EC29ED29C8297608F1007508F000080019
:1003E400F701F8010330F6000830F5007730F40027
:1003F400F40BFA29F50BFA29F60BFA290A128A15D5
:1004040079270A128A110130F7070318F80A003015
:10041400F8077808803AFF0080307F02031D142A11
:100424000F307702031C172A182AF429F901FA015C
:100434000330F6000830F5007730F400F40B202A7E
:10044400F50B202AF60B202A0A128A1198200A1288
:100454008A110130F9070318FA0A0030FA077A08FA
:10046400803AFF0080307F02031D3A2A0F30790260
:10047400031C3D2A3E2A1A2A0800F7007703031DAD
:10048400442A452A682A74087F3EF5007508FA0054
:100494007A08F50004300310F50CFF3E031D4D2AC5
:1004A4007508F6007608F8007A080F39F500750823
:1004B400F90078080A128A159F270A128A11790806
:1004C4000A128A159F270A128A11902A0230770687
:1004D400031D6D2A6E2A902A7408BF3EF500750824
:1004E400FA007A08F50004300310F50CFF3E031DF2
:1004F400762A7508F6007608F8007A080F39F500B0
:100504007508F90078080A128A159F270A128A11B9
:1005140079080A128A159F270A128A110800831281
:100524000313A001A1010A128A156C270A128A1169
:100534000230FB007B08F40001300A128A113F22CA
:100544000A128A114230F5008030F6000A128A112C
:10055400D1200A128A118312031307150630FD00F5
:100564001330FC00AD30FB00FB0BB62AFC0BB62AA3
:10057400FD0BB62ABD2A8312031307110630FD00B2
:100584001330FC00AD30FB00FB0BC62AFC0BC62A63
:10059400FD0BC62ACD2A013083120313A0070318CA
:1005A400A10A0030A1072108803AFF0080307F02B1
:1005B400031DDE2A05302002031CE12AE22A952AC3
:1005C400080000300A128A15B9270A128A111A3053
:1005D400F500F830F400F40BED2AF50BED2A0000D9
:1005E40003300A128A159F270A128A110730F50070
:1005F4007D30F400F40BFC2AF50BFC2A03300A12BC
:100604008A159F270A128A110F30F5004730F4002B
:10061400F40B0A2BF50B0A2B0F2B03300A128A1545
:100624009F270A128A1102300A128A159F270A127A
:100634008A1102300A128A159F270A128A11083079
:100644000A128A159F270A128A1100300A128A1583
:100654009F270A128A110C300A128A159F270A1240
:100664008A1100300A128A159F270A128A1106304D
:100674000A128A159F270A128A110800643083120D
:100684000313C9000030CA00013086000D30F100A8
:10069400FB30F000F00B4C2BF10B4C2B512B831245
:1006A4000313061E562B572B5C2B0130C900003058
:1006B400CA006D2B861E5F2B602B652B0230C90090
:1006C4000030CA006D2B061F682B692B6D2B03307D
:1006D400C9000030CA00023086000D30F100FB3042
:1006E400F000F00B732BF10B732B782B8312031395
:1006F400061E7D2B7E2B832B0430C9000030CA00DC
:10070400942B861E862B872B8C2B0530C90000303A
:10071400CA00942B061F8F2B902B942B0630C900F4
:100724000030CA00043086000D30F100FB30F000C8
:10073400F00B9A2BF10B9A2B9F2B83120313061E9B
:10074400A42BA52BAA2B0730C9000030CA00BB2B51
:10075400861EAD2BAE2BB32B0830C9000030CA0067
:10076400BB2B061FB62BB72BBB2B0930C90000309F
:10077400CA00083086000D30F100FB30F000F00BA9
:10078400C12BF10BC12BC62B83120313061ECB2BDB
:10079400CC2BD12B2A30C9000030CA00E02B861E96
:1007A400D42BD52BD82BC901CA01E02B061FDB2B78
:1007B400DC2BE02B2330C9000030CA0049080800B4
:1007C40083120313AB002130A3002308A600B32C2B
:1007D40025302C060319EF2BF02BFC2B2C08A3003F
:1007E4002B0884002308831380000130A30023080E
:1007F400AB07B32CA7010130A007FF30200784000A
:100804000A128A110D200A128A11AC00A300A40155
:100814002408003A03190F2CB32C2308003A0319B7
:10082400C52C643A03191A2C0D3A03191A2CB32C4B
:100834002608840083130008A900840A0008AA007B
:100844000230A3002308A607AA1F292C2A2C332C24
:100854000330A3002308A704A909AA09A90A0319B4
:10086400AA0AAC01AC0A2C08A3002307013E8400A9
:100874000A128A110D200A128A11A4000A128A117E
:100884000D200A128A11A50025082A02031D4C2CEA
:100894002408290203184F2C502C512C5B2C0130B6
:1008A400A3002308AC0705302C06031D5A2C5B2C2F
:1008B400352C270803390319602C612C6C2C2D303E
:1008C400A3002B0884002308831380000130A300B5
:1008D4002308AB072C08A3002308A800AA2C0A307D
:1008E400F8000030F9002808A3002307013E840023
:1008F4000A128A110D200A128A11F0000A128A11B2
:100904000D200A128A11F1002A08F3002908F200C6
:100914000A128A11AE210A128A117108FB007008AA
:10092400FA000A128A1138210A128A117808303E14
:1009340083120313A4002408AC002C08A3002B0882
:1009440084002308831380000130A3002308AB072D
:10095400FF30A3002308A807280A031DB22CB32CD8
:10096400712C0130A007FF30200784000A128A117D
:100974000D200A128A11A3002308AC002C08031DC1
:10098400C42CC52CEA2B2B08840083138001080097
:100994008316031388018701F03086008312031342
:1009A4008801870186010A128A11E3220A128A1138
:1009B4000A128A156C270A128A11F401F40A01300A
:1009C4000A128A113F220A128A110B30F500803074
:1009D400F6000A128A11D1200A128A110A128A1107
:1009E400F2210A128A110A128A11A5200A128A1106
:1009F4000A128A1560270A128A11CD2F0A128A1147
:100A040040230A128A1183120313AD00AE012D088C
:100A1400C7002E08C800823083120313AE00DD30F5
:100A2400AD00AD0B132DAE0B132D643083120313E5
:100A34004706480403191F2D202DEA2E23304706AC
:100A440048040319262D272DEA2E2A304706480488
:100A540003192D2D2E2DEA2E4D084E04031D332D82
:100A6400342D7B2D0A128A1586270A128A118312C5
:100A740003134808DA004708D9005A08CC0059087B
:100A8400CB000830AD002D08F40002300A128A11A0
:100A94003F220A128A117530F5008030F6000A12DE
:100AA4008A11D1200A128A11033083120313AF0072
:100AB4008A30AE005530AD00AD0B5E2DAE0B5E2D11
:100AC400AF0B5E2D013083120313CD070318CE0A3A
:100AD4000030CE077C30AD002D08A0004C08A200E9
:100AE4004B08A10033300A128A11E2230A128A1138
:100AF400EA2E4D034E04031D802D812DDB2D0A1299
:100B04008A1586270A128A11831203134808D4000F
:100B14004708D3005A08F1005908F0000A30F200DF
:100B24000030F3000A128A15DB270A128A11831295
:100B3400031353087007CB0054080318540A7107B1
:100B4400CC000930AD002D08F40002300A128A11DD
:100B54003F220A128A117530F5008030F6000A121D
:100B64008A11D1200A128A11033083120313AF00B1
:100B74008A30AE005530AD00AD0BBE2DAE0BBE2D90
:100B8400AF0BBE2D013083120313CD070318CE0A19
:100B94000030CE077C30AD002D08A0004C08A20028
:100BA4004B08A10033300A128A11E2230A128A1177
:100BB400EA2E02304D064E04031DE12DE22D572E80
:100BC4000A128A1586270A128A1183120313480807
:100BD400D2004708D1005A08F1005908F0006430E7
:100BE400F2000030F3000A128A15DB270A128A1178
:100BF400700883120313AD007108AE005408F100AD
:100C04005308F0000A30F2000030F3000A128A158B
:100C1400DB270A128A117008831203132D07AF0011
:100C240071080318710A2E07B00051082F07CB0072
:100C340052080318520A3007CC000A30AD002D08C0
:100C4400F40002300A128A113F220A128A11753006
:100C5400F5008030F6000A128A11D1200A128A1196
:100C6400033083120313AF008A30AE005530AD0059
:100C7400AD0B3A2EAE0B3A2EAF0B3A2E0130831247
:100C84000313CD070318CE0A0030CE077C30AD0025
:100C94002D08A0004C08A2004B08A10033300A1212
:100CA4008A11E2230A128A11EA2E03304D064E04F9
:100CB400031D5D2E5E2EEA2E0A128A1586270A125D
:100CC4008A11831203134808D0004708CF005A083A
:100CD400F1005908F000E830F2000330F3000A1282
:100CE4008A15DB270A128A11700883120313AD00D8
:100CF4007108AE005408F1005308F0006430F200AB
:100D04000030F3000A128A15DB270A128A117008D0
:100D1400831203132D07AF0071080318710A2E07FD
:100D2400B0005208F1005108F0000A30F20000301F
:100D3400F3000A128A15DB270A128A11700883123B
:100D440003132F07B10071080318710A3007B200AA
:100D54004F083107CB0050080318500A3207CC0063
:100D64000B30AD002D08F40002300A128A113F2224
:100D74000A128A117530F5008030F6000A128A11C1
:100D8400D1200A128A11033083120313AF008A3070
:100D9400AE005530AD00AD0BCD2EAE0BCD2EAF0B4E
:100DA400CD2E013083120313CD070318CE0A003071
:100DB400CE077C30AD002D08A0004C08A2004B08E3
:100DC400A10033300A128A11E2230A128A11EA2E90
:100DD40023308312031347064804031DF22EF32E17
:100DE400F92E33300A128A1172210A128A112A301A
:100DF4008312031347064804031D012F022FCD2F2E
:100E04000A128A1586270A128A11D2308312031312
:100E14004B06043003194C06031D112F122F872F84
:100E24000130D5000030D6000A128A155C270A1258
:100E34008A110A128A156C270A128A110230831247
:100E44000313AD002D08F40001300A128A113F2269
:100E54000A128A115130F5008030F6000A128A1104
:100E6400D1200A128A11103083120313AF003930D3
:100E7400AE000D30AD00AD0B3D2FAE0B3D2FAF0BD3
:100E84003D2F0A128A156C270A128A110430831224
:100E94000313AD002D08F40001300A128A113F2219
:100EA4000A128A116030F5008030F6000A128A11A5
:100EB400D1200A128A11043083120313AD002D08C5
:100EC400F40002300A128A113F220A128A116A308F
:100ED400F5008030F6000A128A11D1200A128A1114
:100EE4000A128A1194200A128A11243083120313DD
:100EF400AF008330AE00CE30AD00AD0B7F2FAE0B14
:100F04007F2FAF0B7F2F0000CD2F0130D7070318A1
:100F1400D80A0030D807CD01CE010A128A156C27F1
:100F24000A128A11F401F40A01300A128A113F22CA
:100F34000A128A112130F5008030F6000A128A1153
:100F4400D1200A128A11063083120313AF00133022
:100F5400AE00AD30AD00AD0BAD2FAE0BAD2FAF0B72
:100F6400AD2F831203135808803AFF0080307F02AC
:100F7400031DBE2F033057020318C12FC22FC82FE1
:100F84000A128A11A5200A128A11CD2F0A128A1177
:100F940091220A128A11831203135808803AFF001F
:100FA40080307F02031DD82F033057020318DB2F34
:100FB400DC2FE42F83120313550856040319E32F7F
:100FC400E42F002D0A128A1100280A128A11922095
:100FD4000A128A11DB000A128A1193200A128A115A
:100FE400DC008313493084005B300A128A156427BD
:0C0FF4000A128A1183010A128A11CA2C09
:101EB8008312031387100800831203138714080082
:101EC80064008001840A0406031900340406652F9F
:101ED80000300A128A159F270A128A1501300A1241
:101EE8008A159F270A128A15080001300A128A15D6
:101EF8009F270A128A1508300A128A159F270A1284
:101F08008A1508008312031307158230F100DD30AB
:101F1800F000F00B8D2FF10B8D2F922F83120313EE
:101F280007118230F100DD30F000F00B992FF10B32
:101F3800992F9E2F0800F3008312031308117308CA
:101F48000A128A15B9270A128A15831203138815EB
:101F58000630F2003030F100F10BB02FF20BB02F49
:101F680000008312031388110800F000701CBD2FB5
:101F7800BE2FC22F831203130816C52F8312031313
:101F88000812F01CC82FC92FCB2F8816CC2F881207
:101F9800701DCF2FD02FD22F0817D32F0813F01D65
:101FA800D62FD72FD92F8817DA2F88130800F401D6
:101FB800F501701CE02FE12FE72F7208F4070318D2
:101FC800F50A7308F50701300310F20DF30DFF3E13
:101FD800031DE82F01300310F10CF00CFF3E031D28
:101FE800EF2F70087104031DFA2FFB2FDD2F7508E2
:081FF800F1007408F00008007C
:04400E00F22FFF3F4F
:00000001FF
